:100000000C9462000C948A000C948A000C948A0070
:100010000C948A000C948A000C948A000C948A0038
:100020000C948A000C948A000C948A000C94EA0BBD
:100030000C948A000C948A000C948A000C948A0018
:100040000C94A00B0C948A000C946E0B0C94480B2F
:100050000C948A000C948A000C948A000C948A00F8
:100060000C948A000C948A000000000025002800EF
:100070002B000000000023002600290000000008DB
:10008000000201000003040700000000000000005F
:1000900000000000240027002A00010204081020AC
:1000A000408001020408102001020408102004040A
:1000B0000404040404040202020202020303030310
:1000C0000303A60C11241FBECFEFD8E0DEBFCDBFC7
:1000D00012E0A0E0B1E0E2E5F3E202C005900D928B
:1000E000A837B107D9F723E0A8E7B2E001C01D9215
:1000F000A03EB207E1F710E0C2E6D0E004C02197CD
:10010000FE010E94A111C136D107C9F70E94870DD7
:100110000C94A7110C94000096E0899FD001112443
:10012000AF59BC4F90967C936E935F9791E09196F8
:100130009C939197E091CE03F091CF039091CD03E2
:10014000992339F0309751F0811108C080917D03D7
:100150000994309719F05C968C91FACF0895CF925C
:10016000DF92EF92FF920F931F9396E0899FF00129
:100170001124EF59FC4F11A2278D30A121303105F8
:1001800051F178F02230310509F451C023303105A6
:1001900009F452C01F910F91FF90EF90DF90CF9024
:1001A00008956623B9F361E070E00E948C002FB7D8
:1001B000F8948091800290918102A0918202B09186
:1001C00083022FBF8093B9039093BA03A093BB031C
:1001D000B093BC03DFCF9FB7F894C0908002D0905B
:1001E0008102E0908202F09083029FBF0091B903E8
:1001F0001091BA032091BB033091BC03C01AD10AFD
:10020000E20AF30A0091CB031091CC0330E020E026
:100210000C151D052E053F0550F462E070E01F919E
:100220000F91FF90EF90DF90CF900C948C006111B4
:10023000B1CF63E070E0F3CF70E060E0F0CF8CBD51
:100240009DBD08958F929F92AF92BF92FF920F93A0
:100250001F93CF93DF93F09046032BE02F1508F404
:100260004CC02091480308E512E0021B110927FD4C
:100270001395000F111F000F111F20914703C8E8AD
:10028000D0E0C21BD10927FDD395CC0FDD1FCC0FC9
:10029000DD1F4E010D2E000CAA08BB089801012E8F
:1002A000000C440B550B281939094A095B09DC017C
:1002B0000E945C1124EB30E040E050E00E943211DB
:1002C000820E931EA41EB51E8C169D062CF0E8010E
:1002D000801691060CF4E4012297CC0FDD1F2FB796
:1002E000F8948F2D90E0FC01EE0FFF1FE80FF91F2F
:1002F000EF5DFC4FD283C1832FBFDF91CF911F9160
:100300000F91FF90BF90AF909F908F900895FC0148
:10031000538D448D252F30E0842F90E0821B930B6A
:10032000541710F0CF96089501970895FC01918D10
:10033000828D981761F0A28DAE0FBF2FB11D5D9613
:100340008C91928D9F5F9F73928F90E008958FEFB5
:100350009FEF0895FC01918D828D981731F0828D69
:10036000E80FF11D858D90E008958FEF9FEF0895C0
:10037000FC01918D228D892F90E0805C9F4F821B24
:1003800091098F7399270895FC01A48DA80FB92FA7
:10039000B11DA35ABF4F2C91848D90E001968F73AD
:1003A0009927848FA689B7892C93A089B1898C91CC
:1003B000837080648C93938D848D981306C002881B
:1003C000F389E02D80818F7D80830895EF92FF92E5
:1003D0000F931F93CF93DF93EC0181E0888F9B8D68
:1003E0008C8D98131AC0E889F989808185FF15C022
:1003F0009FB7F894EE89FF896083E889F989808145
:100400008370806480839FBF81E090E0DF91CF9113
:100410001F910F91FF90EF900895F62E0B8D10E035
:100420000F5F1F4F0F731127E02E8C8D8E110CC0A4
:100430000FB607FCFACFE889F989808185FFF5CFEF
:10044000CE010E94C401F1CFEB8DEC0FFD2FF11D09
:10045000E35AFF4FF0829FB7F8940B8FEA89FB892C
:1004600080818062CFCFCF93DF93EC01888D88238A
:10047000B9F0AA89BB89E889F9898C9185FD03C007
:10048000808186FD0DC00FB607FCF7CF8C9185FFEC
:10049000F2CF808185FFEDCFCE010E94C401E9CF6C
:1004A000DF91CF91089584E892E00E94B80121E0A5
:1004B000892B09F420E0822F089580E090E0892BB9
:1004C00029F00E94530281110C9400000895AF920C
:1004D000BF92CF92DF92EF92FF920F931F93CF9331
:1004E000DF936C017B018B01040F151FEB015E0193
:1004F000AE18BF08C017D10759F06991D601ED9128
:10050000FC910190F081E02DC6010995892B79F7C6
:10051000C501DF91CF911F910F91FF90EF90DF9078
:10052000CF90BF90AF900895833081F028F4813050
:1005300099F08230A9F008958730A9F08830C9F089
:100540008430B1F4809180008F7D03C08091800061
:100550008F7780938000089584B58F7784BD089548
:1005600084B58F7DFBCF8091B0008F778093B000F2
:1005700008958091B0008F7DF9CFCF93DF93282F1E
:1005800030E0F901E458FF4F8491F901E656FF4F3E
:10059000D491F901E255FF4FC491CC23A1F0811110
:1005A0000E949402EC2FF0E0EE0FFF1FEE58FF4F79
:1005B000A591B491EC91ED2381E090E009F480E005
:1005C000DF91CF91089580E090E0FACF862F0C94D0
:1005D000BD021F93CF93DF93282F30E0F901E45839
:1005E000FF4F8491F901E656FF4FD491F901E2558E
:1005F000FF4FC491CC23A9F0162F81110E949402C1
:10060000EC2FF0E0EE0FFF1FE859FF4FA591B491DA
:100610008FB7F894EC91111108C0D095DE23DC93CC
:100620008FBFDF91CF911F910895DE2BF8CF862FDA
:10063000642F0C94E902CF93DF9390E0FC01E6561F
:10064000FF4F249182559F4FFC0184918823C9F06C
:1006500090E0880F991FFC01E057FF4FA591B491DE
:10066000FC01E859FF4FC591D49161110DC09FB7AE
:10067000F8948C91209582238C9388812823288359
:100680009FBFDF91CF910895623051F49FB7F894E6
:100690003C91822F809583238C93E8812E2BEFCF82
:1006A0008FB7F894EC912E2B2C938FBFEACF862F27
:1006B000642F0C941B036F927F928F929F92AF9244
:1006C000BF92CF92DF92EF92FF920F931F93CF933F
:1006D000DF9381E08093CD038FB7F894409180023F
:1006E0005091810260918202709183028FBF80914C
:1006F000BD039091BE03A091BF03B091C003481BFE
:10070000590B6A0B7B0B8091C9039091CA03B0E02F
:10071000A0E084179507A607B70708F01DC1C0E041
:100720008091C703C81760F4E091C303F091C4033C
:10073000EC0FF11D62E080810E941B03CF5FF0CFC0
:10074000712C812C912C540183948091C8037816CC
:1007500008F05FC0072D10E0E091C503F091C603DB
:10076000E00FF11F61E080810E941B03E091C5034F
:10077000F091C603E00FF11F60E080810E94E90262
:10078000D501C401072C04C0880F991FAA1FBB1FE5
:100790000A94D2F76C017C01E094F094612C809172
:1007A000C7036816F8F4C62DD0E0E091C303F091BA
:1007B000C403EC0FFD1F80810E94BD022496CC0F64
:1007C000DD1FCF59DC4F892B41F4888199818C2919
:1007D0009D29998388836394E2CF888199818E21B2
:1007E0009F21F7CFE091C503F091C603E00FF11F01
:1007F00061E080810E94E9028091C5039091C60367
:10080000080F191F60E0F80180810E941B03739498
:100810009CCFC1E6D3E0FE018FEF9FEF278D30A183
:10082000232B21F4148E968F858F11A2369623E008
:10083000ED39F20799F7F12C96E0D92E8091C70394
:10084000F81608F050C0E12C0F2D10E0000F111F1A
:1008500007591C4F2091C803E21608F042C0F80166
:10086000608171810E2C02C0769567950A94E2F73B
:10087000F29E900111242E0D311DE1E6F3E080E09F
:10088000458D568D2417350709F46AC08F5F36965B
:100890008A30B1F760FF23C0E1E6F3E090E080E04A
:1008A000448D411117C0E091C103F091C203E20FE2
:1008B000F31F4081D89EF001D99EF00D1124EF590D
:1008C000FC4F448F368F258F10A2178E61E00E9457
:1008D000AF0005C0019636968A30910509F7E3947A
:1008E000B9CFF394ABCF80E099A19111892F2696CF
:1008F000F3E0CD39DF07C1F79FB7F894409180024C
:100900005091810260918202709183029FBF409357
:10091000BD035093BE036093BF037093C00388234D
:10092000D9F0809182038823B9F08091800390915F
:100930008103019789F480917D03DF91CF911F910D
:100940000F91FF90EF90DF90CF90BF90AF909F906E
:100950008F907F906F9008951092CD0380E0EDCF3F
:100960006170B5CF0E945B038823E1F308953FB720
:10097000F89480917A0290917B02A0917C02B091D0
:100980007D0226B5A89B05C02F3F19F00196A11D39
:10099000B11D3FBFBA2FA92F982F8827BC01CD01C9
:1009A000620F711D811D911D42E0660F771F881F28
:1009B000991F4A95D1F708958F929F92AF92BF9257
:1009C000CF92DF92EF92FF924B015C010E94B7043D
:1009D0006B017C010E94B7046C197D098E099F0987
:1009E000683E734081059105A8F321E0821A9108C1
:1009F000A108B10888EEC80E83E0D81EE11CF11CE6
:100A000081149104A104B10429F7FF90EF90DF90C5
:100A1000CF90BF90AF909F908F900895BC016E5F74
:100A20007F4FDC01ED91FC910190F081E02D40E0E1
:100A3000099591E0811190E0892F089508958EBD68
:100A400000000DB407FEFDCF8EB50895DF92EF9242
:100A5000FF920F931F93CF93DF937C01062FD42E29
:100A6000152F80E590E00E941F0160E0F701868568
:100A70000E94E90282E10E941F05CD2DD12F0C0FAB
:100A80001D2F111DC017D10721F089910E941F054C
:100A9000F9CF61E0F7018685DF91CF911F910F912A
:100AA000FF90EF90DF900C94E9021F93CF93DF93B8
:100AB000EC01162F80E590E00E941F0160E08E851A
:100AC0000E94E902812F80680E941F0580E00E9439
:100AD0001F05182F61E08E850E94E902812FDF91AA
:100AE000CF911F9108950F931F93CF93DF93EC0144
:100AF000062F142F80E590E00E941F0160E08E8594
:100B00000E94E902802F0E941F05812F0E941F056D
:100B100061E08E85DF91CF911F910F910C94E902D6
:100B2000CF92DF92EF92FF920F931F93CF93DF93B9
:100B3000EC016B01142F790140E062E00E94730523
:100B400044E06AE0CE010E94730540E864E1CE0112
:100B50000E947305A601612FCE010E94260543E085
:100B600062E0CE010E94730508E813E16AE0CE015D
:100B70000E94550582FF1BC040E062E0CE010E944A
:100B8000730564E4CE010E945505F701808362E499
:100B9000CE010E945505F701818380E0DF91CF915E
:100BA0001F910F91FF90EF90DF90CF90089501502B
:100BB0001109E1F683E0F2CF3F924F925F926F927C
:100BC0007F928F929F92AF92BF92CF92DF92EF92DD
:100BD000FF920F931F93CF93DF9300D0CDB7DEB773
:100BE0004C012B01D42E390180E0E114F10411F005
:100BF000F7018081BC2CB29490EFB922B80E40E08E
:100C000062E0C4010E9473054FE768E0C4010E94DE
:100C1000730540E864E1C4010E947305A2016D2DD3
:100C2000C4010E9426054B2D6AE1C4010E94730590
:100C30004CE062E0C4010E9473056AE1C4010E94B5
:100C40005505482F40686AE1C4010E94730520EDF4
:100C5000422E27E0522E68E0C4010E945505982FCD
:100C6000907309F0B6C080FD04C0F1E04F1A51083E
:100C700091F783E094C06114710409F46DC001150B
:100C8000110509F469C064E1C4010E945505B82E3C
:100C9000F80180818B1508F496C0B082BB20E1F189
:100CA00080E590E00E941F0160E0F40186850E94CB
:100CB000E902BA9482E90E941F05CC20B1F08FEFBF
:100CC00090E09C0102C0220F331FCA94E2F7690131
:100CD00082E90E941F059C2D9095F30120819223AB
:100CE0008C21982B9083CC24C39423014C0C511C51
:100CF000CB1440F482E90E941F05F20181932F0179
:100D0000C394F6CF80E00E941F05F201808361E06A
:100D1000F40186850E94E90268E1C4010E9455053C
:100D20008770E114F10411F0F701808333FC4DC0AA
:100D30006114710409F44BC00115110509F447C091
:100D4000AA2009F444C0F8014081413039F48430CC
:100D500009F049C08FEF23C080E0E8CF423008F4AB
:100D600042C0811140C042509E012F5F3F4FB301EE
:100D7000C4010E949005811112C0F8019081690E92
:100D8000711CF30132972081998129132CC0F1E065
:100D90006F1A7108F30120819A81291324C00F90E2
:100DA0000F90DF91CF911F910F91FF90EF90DF9007
:100DB000CF90BF90AF909F908F907F906F905F90FB
:100DC0004F903F90089584E0EACF82E0E8CF80E042
:100DD000E6CF6CE0C4010E945505382E837109F4FA
:100DE0004ACF81E0DCCF87E0DACF8F929F92AF923B
:100DF000CF92EF92FF920F931F93CF93DF9300D088
:100E000000D01F92CDB7DEB74C0182E08D8340E069
:100E100064E2C4010E94730540E066E2C4010E94DE
:100E2000730546E268E4C4010E94730586E28B8381
:100E30008D818230D8F16CE1C4010E945505482FA4
:100E40004F776CE1C4010E94730587E08C83A12C6D
:100E5000C12CCE0104967C018E010B5F1F4F9E01B9
:100E60002F5F3F4F41E0BE016D5F7F4FC4010E9485
:100E7000DC05982F811117C08D818230B9F48C81E7
:100E8000811114C081E00F900F900F900F900F9080
:100E9000DF91CF911F910F91FF90EF90CF90AF9086
:100EA0009F908F90089581E0923069F380E0EBCFBE
:100EB0002F923F924F925F926F927F928F929F926A
:100EC000AF92BF92CF92DF92EF92FF920F931F9358
:100ED000CF93DF93CDB7DEB72D970FB6F894DEBF73
:100EE0000FBECDBF16E0413508F04AC1342E3B019C
:100EF0004C016CE10E945505482F4F776CE1C4010D
:100F00000E94730583E98983332029F081E0F3018E
:100F10009081953008F480E022242394B12C9B2DFD
:100F2000990F990F990FD32CD91AD7FCD12C32E0F5
:100F3000882319F098E89B8333E021E09D2D97707A
:100F400009F420E09D2D959595959595290FC9F06B
:100F500094E0811193E0291708F4922FEB2DF0E033
:100F60003196E60DF71D232F4191A1E0B0E0AC0FC3
:100F7000BD1FA20FB11D4C932F5F422F431B49177A
:100F800098F3882311F0F8E0DF0E8FE18D150CF057
:100F900082C090E79A838B819C8189279D818927D4
:100FA0009E8189278F839E01285F3F4F47E0BE01C6
:100FB0006F5F7F4FC4010E949005182F8111E0C020
:100FC0001A86E3E0EB87DC86CE0107962C0199E0D8
:100FD0009D87CA844C2D4295407F4C0D6AE1C40127
:100FE0000E947305A12CCE010A967C018E01055F3B
:100FF0001F4F92014D85BE016F5F7F4FC4010E945C
:10100000DC05182F823009F065C06CE1C4010E9434
:10101000550585FDB5C08F7109F480E2282F30E0B9
:101020004D2DDD0C550B421753070CF09DC0D82EEB
:10103000E82FE595E595E595EF5F982F977081E0AE
:1010400009F480E0E80F81E090E08C0F9D1F8E0F87
:10105000911DFC01215031092770332781E090E078
:1010600002C0880F991F2A95E2F79C018081822B8C
:1010700080838BCF85E98983332031F081E0F301D0
:101080009081983008F04BCF80E049CF87E9898381
:1010900026E0B22EF9CF9D2D97709A878D2D8595DC
:1010A000859585958E5F282F2295207F290F2A838D
:1010B00021E0911101C020E0280F2D8744244394A2
:1010C000512C4C0E5D1E480E511CE9E0E81BEB87CD
:1010D000DC867FCF811154C080E2D82E9C8590326F
:1010E0000CF457CF8B81883809F040C083E093E03F
:1010F000EB2DF0E03196E60DF71D980FA1E0B0E082
:10110000AC0FBD1FA80FB11D2C9121938F5F8913C8
:10111000F5CFBB84E3E0BE124DC08A8581114AC081
:101120009E012D5F3F4F41E0B201C4010E94900536
:10113000182F811125C09B81F201818198133CC039
:101140009C818281981338C0808182FF12C02394D1
:10115000F2E02F1609F48ECF83E0281609F496CF1B
:1011600091E0291609F4CECE15E00AC082E094E0A1
:10117000BFCFF3018387822D880F820D8F5F80831D
:10118000812F2D960FB6F894DEBF0FBECDBFDF9135
:10119000CF911F910F91FF90EF90DF90CF90BF9074
:1011A000AF909F908F907F906F905F904F903F9007
:1011B0002F90089511E0E4CF17E0E2CF089590E07A
:1011C00080E0089510927F0290E080E00E9422016A
:1011D00064EF71E080E090E00C94DC04FC0101908D
:1011E0000020E9F73197AF01481B590BBC0189E496
:1011F00093E00C946702682F86E090E00C94241131
:10120000EF92FF920F931F93CF93DF9300D000D004
:1012100000D0CDB7DEB786E0E3E1F1E0DE01119664
:1012200001900D928A95E1F78E010F5F1F4FF12C0F
:10123000E12CF80161918F01C7010E942411FFEF99
:10124000EF1AFF0A86E0E816F10499F782E0269685
:101250000FB6F894DEBF0FBECDBFDF91CF911F91C7
:101260000F91FF90EF900C94FB08CF93DF93EC016C
:1012700060E08E810E94E90261E08E810E94E902B5
:1012800060E08E810E94E9028BE891E00197F1F71E
:10129000DF91CF910895CF92DF92EF92FF920F935B
:1012A0001F93CF93DF936C017C0187E0E80EF11C64
:1012B000D0E0C0E0062F10E0B8010C2E02C07595FA
:1012C00067950A94E2F76170F70181917F010E94AE
:1012D000E9022196C430D10579F7C601DF91CF919B
:1012E0001F910F91FF90EF90DF90CF900C943509F4
:1012F000CF92DF92EF92FF920F931F93CF93DF93E2
:10130000EC01F62E642F8C810E94E9028D818F3FC3
:1013100019F060E00E94E9020F2D10E08F8584FF34
:1013200025C06E0187E0C80ED11CF12CE12CB8015C
:101330000E2C02C0759567950A94E2F76170F6016C
:1013400081916F010E94E902FFEFEF1AFF0A88E026
:10135000E816F10461F7CE01DF91CF911F910F9153
:10136000FF90EF90DF90CF900C943509B80184E0A6
:10137000759567958A95E1F7CE010E944B096F2D0F
:10138000CE01DF91CF911F910F91FF90EF90DF90F1
:10139000CF900C944B0940E0682F89E493E00C94C3
:1013A000780981E00E94CB098BE39FE10197F1F777
:1013B0000895CF93DF93CDB7DEB728970FB6F89493
:1013C000DEBF0FBECDBF0E94D10987E591E00E942C
:1013D000EE088091190190911A01A0911B01B09122
:1013E0001C018D839E83AF83B88780ED93E00E94BC
:1013F000F5068823D1F380ED93E00E940E05882343
:10140000A1F34091D20323ED33E0FE013196BF01F9
:10141000962F9E1B941738F4D9019D919D01DB01F5
:101420009D93BD01F5CFDE0115969E01275F3F4FCD
:101430004D91919149130CC0A217B307C9F7289693
:101440000FB6F894DEBF0FBECDBFDF91CF910895E8
:1014500080E0F5CFCF93DF93823029F49091580349
:1014600098609093580380935C0310925D0380E42E
:1014700080935E0380E180935F0380E58093600347
:1014800061E080914D030E941B0380914E038F3FCA
:1014900019F061E00E941B0361E080914F030E94FC
:1014A0001B03C9E4D3E09E012954334080915803C3
:1014B00084FD0BC084E090E021962817390744F49E
:1014C00061E08E810E941B03EECF88E090E0F4CFB4
:1014D0008BE39DE00197F1F760E080914D030E945E
:1014E000E90260E080914F030E94E90280914E037F
:1014F0008F3F19F060E00E94E9028091580384FD5B
:1015000034C063E089E493E00E944B09CBE4D6E465
:10151000CE010197F1F763E089E493E00E944B0963
:101520002197F1F763E089E493E00E944B0983E59A
:1015300092E00197F1F762E089E493E00E944B09A1
:101540008091580380620E94CB0984E08093590304
:101550008CE00E94CB090E94D10982E080935A035B
:1015600086E0DF91CF910C94CB0980620E94CB0979
:101570008BE496E40197F1F78091580380620E9412
:10158000CB0983E592E00197F1F7809158038062DF
:101590000E94CB09D5CF90915C03691710F06FEFD3
:1015A000690FE62FF0E0E75BFC4F9489890F8068B4
:1015B0000C94CB0941E00E94780981E090E0089505
:1015C0000C941C11DF92EF92FF920F931F93CF9315
:1015D000DF9300D000D000D0CDB7DEB70E94D10994
:1015E00080E691E00E94EE0861E084E00E94CB0A70
:1015F0008E010F5F1F4F86E0F80111928A95E9F77F
:10160000F12C0E94B204E82E8AE2E816A1F0E3E28F
:10161000EE1689F041E06AE289E493E00E947809DD
:10162000F801EF0DF11D80ED8E0D8083F3940E9483
:101630005B038E15E1F3F6E0FF12E3CF64EF71E098
:1016400080E090E00E94DC040E94D109F12CE12CA2
:10165000F801D1908F01C7010E94E00AD81216C08C
:10166000FFEFEF1AFF0A86E0E816F10489F781E040
:1016700026960FB6F894DEBF0FBECDBFDF91CF9197
:101680001F910F91FF90EF90DF90089580E0F0CFD1
:101690001F920F920FB60F9211242F933F934F93E7
:1016A0005F936F937F938F939F93AF93BF93EF93CA
:1016B000FF9384E892E00E94C401FF91EF91BF91F3
:1016C000AF919F918F917F916F915F914F913F91DA
:1016D0002F910F900FBE0F901F9018951F920F9291
:1016E0000FB60F9211242F938F939F93EF93FF9335
:1016F000E0919402F09195028081E0919A02F0913C
:101700009B0282FD1BC0908180919D028F5F8F7331
:1017100020919E02821741F0E0919D02F0E0EC578B
:10172000FD4F958F80939D02FF91EF919F918F9137
:101730002F910F900FBE0F901F9018958081F4CFBE
:101740001F920F920FB60F9211242F933F938F93F6
:101750009F93AF93BF938091800290918102A0915B
:101760008202B09183023091790223E0230F2D375A
:1017700058F50196A11DB11D209379028093800236
:1017800090938102A0938202B093830280917A02A7
:1017900090917B02A0917C02B0917D020196A11DE7
:1017A000B11D80937A0290937B02A0937C02B09348
:1017B0007D02BF91AF919F918F913F912F910F909B
:1017C0000FBE0F901F90189526E8230F0296A11DBB
:1017D000B11DD2CF1F920F920FB60F9211242F93EB
:1017E0003F934F935F936F937F938F939F93AF93A9
:1017F000BF93CF93DF93EF93FF9380917802C091D3
:101800004503D0E087FF24C0109285001092840029
:10181000809178028F5F8093780280917802082E01
:10182000000C990B8C179D0724F4809178028C3062
:10183000C4F18091840090918500049680349C4985
:1018400008F47AC08091840090918500049676C057
:1018500080917802082E000C990B8C179D07C4F616
:10186000E09178028E2FEE0F990BFC01EE0FFF1F17
:10187000E80FF91FEF5DFC4F808186FFC9CFE09133
:1018800078028E2FEE0F990BFC01EE0FFF1FE80F71
:10189000F91FEF5DFC4F808160E08F730E94E902C9
:1018A000B7CF2091840030918500E09178028E2F8F
:1018B000EE0F990BFC01EE0FFF1FE80FF91FEF5D14
:1018C000FC4F81819281820F931F909389008093B6
:1018D0008800E09178028E2FEE0F990BFC01EE0F3D
:1018E000FF1FE80FF91FEF5DFC4F808186FF11C0DD
:1018F000E09178028E2FEE0F990BFC01EE0FFF1F87
:10190000E80FF91FEF5DFC4F808161E08F730E944B
:10191000E902FF91EF91DF91CF91BF91AF919F913C
:101920008F917F916F915F914F913F912F910F9088
:101930000FBE0F901F90189580E49CE9909389004A
:10194000809388008FEF80937802E3CFCF9310923B
:1019500087021092860288EE93E0A0E0B0E08093C8
:10196000880290938902A0938A02B0938B0289E245
:1019700091E0909385028093840285EC90E09093AF
:1019800091028093900284EC90E090939302809374
:10199000920280EC90E0909395028093940281EC07
:1019A00090E0909397028093960282EC90E090935F
:1019B00099028093980286EC90E090939B0280932A
:1019C0009A0210929D0210929E0210929F02109213
:1019D000A00281E591E09093D1038093D0038AE047
:1019E0008093DE0389E08093DF03109263031092FB
:1019F0006703109266031092680387E491E0909366
:101A0000620380936103EDE7F3E010821482138296
:101A10001582369683E0E93BF807B9F783E091E059
:101A20009093C4038093C30380E091E09093C60336
:101A30008093C50384E08093C70383E08093C80349
:101A400087E091E09093C2038093C1038AE090E025
:101A50009093CA038093C90384EF91E09093CC03E1
:101A60008093CB031092CF031092CE031092BD034C
:101A70001092BE031092BF031092C0031092CD03C8
:101A800010924C0310924B038BE391E090934A0326
:101A9000809349038EE080934D03CFEFC0934E03B4
:101AA0008FE080934F0380E18093500381E1809326
:101AB000510382E18093520383E180935303109298
:101AC000540310925503109256031092570310922C
:101AD000580381E00E942A0A809145038C30A0F4CB
:101AE00091E0980F909345038093460390E0FC01AA
:101AF000EE0FFF1FE80FF91FEF5DFC4F88EB9BE037
:101B000092838183CF910895C0934603FBCFCF93F7
:101B1000DF93CDB7DEB728970FB6F894DEBF0FBEC0
:101B2000CDBF789484B5826084BD84B5816084BD66
:101B300085B5826085BD85B5816085BD80916E006B
:101B4000816080936E00109281008091810082609C
:101B500080938100809181008160809381008091D9
:101B600080008160809380008091B10084608093C8
:101B7000B1008091B00081608093B00080917A00C4
:101B8000846080937A0080917A00826080937A00EA
:101B900080917A00816080937A0080917A008068D9
:101BA00080937A001092C10082E00E942A0A61E0CC
:101BB00083E00E941B0361E083E00E941B03EFE7C8
:101BC000F0E0E491E33009F49AC150F4E130E1F03F
:101BD000E23009F48EC160E083E00E94E90219C09E
:101BE000E73009F498C1E83009F49EC1E43099F770
:101BF000809180008062809380008AE590E09093DD
:101C00008B0080938A0005C084B5806884BD8AE516
:101C100087BD809146038C3008F051C061E085E0BB
:101C20000E941B0380914603282F30E0F901EE0F3C
:101C3000FF1FE20FF31FEF5DFC4F9081907C9560DA
:101C4000908310924703109248032CE0622F0E9469
:101C50009511829FB001112430E020E0AB01420FCA
:101C6000531FFA01EE0FFF1FE40FF51FEF5DFC4F4E
:101C7000908196FD16C02F5F3F4F2C30310571F7D4
:101C800081110FC01092800082E080938100109239
:101C9000850010928400B19A80916F0082608093D9
:101CA0006F00E09146038E2F90E0FC01EE0FFF1FC6
:101CB000E80FF91FEF5DFC4F8081806480831FB7C0
:101CC000F89480917E02811127C0E8EBF0E08491C6
:101CD000E4EAF0E09491E82FF0E0EE0FFF1FE05708
:101CE000FF4FA591B491EC91E92321F461E08AE0E2
:101CF0000E94E90261E08AE00E941B038CB58061CA
:101D00008CBD8CB580648CBD61E08DE00E941B03AE
:101D100061E08BE00E941B0380917E028F5F8093C5
:101D20007E021FBF61E08091DE030E941B0361E021
:101D30008091DE030E94E9028091DF038F3F09F466
:101D4000FCC060E00E941B038091DF030E94BD0283
:101D5000892B09F0F2C061E08091DF030E941B0330
:101D600060E08091DF030E94E90283E090E0019748
:101D7000F1F761E08091DF030E94E90262E370E025
:101D800080E090E00E94DC0440E064E280ED93E0BB
:101D90000E94730540E066E280ED93E00E947305C7
:101DA00046E268E480ED93E00E94730540E864E554
:101DB00080ED93E00E94730549EA66E580ED93E0CB
:101DC0000E94730543E068E580ED93E00E9473058F
:101DD00048EE6AE580ED93E00E94730540E46AE214
:101DE00080ED93E00E9473054DE362E280ED93E0A5
:101DF0000E94730568E280ED93E00E945505982FDC
:101E00009370933039F0482F436068E280ED93E09F
:101E10000E9473050E9400098E010F5F1F4F98E01A
:101E2000B92E6E0189E0C80ED11C80917F0281110C
:101E30006DC10E94D10960E080E00E94CB0A8FE66C
:101E400091E00E94EE0861E080E00E94CB0A8DE7FD
:101E500091E00E94EE080E94B204813309F084C030
:101E600086E0A82E0E94D1098DE891E00E94EE083C
:101E700061E080E00E94CB0A8DE991E00E94EE08CB
:101E80000E94B2048A3209F459C1803309F47BC03C
:101E90008332B1F70E94D1098BED91E00E94EE08E8
:101EA00061E080E00E94CB0A8DE991E00E94EE089B
:101EB0000E94B2048A32B1F2803309F49BC18332AA
:101EC000B9F70E94D10980E192E00E94EE0861E03A
:101ED00080E00E94CB0A8DE991E00E94EE080E940A
:101EE000B2048A32B9F2803309F495C18332B9F76A
:101EF000E8CF84B5806284BD8AE588BD8ACE8091B2
:101F000080008068809380008AE590E0909389004B
:101F1000809388007ECE8091B00080688093B0006E
:101F20008AE58093B30075CE8091B0008062809383
:101F3000B0008AE58093B4006CCE4FE062E080EDA3
:101F400093E00E94730513E062E370E080E090E0AC
:101F50000E94DC0462E080ED93E00E94550584FF5E
:101F600013CF115089F710CF833209F074CF81E07D
:101F700080937F0284EB90E00E94220164EF71E085
:101F800080E090E005C10E94E20A882309F450C075
:101F90000E94D1098CEA91E00E94EE0861E084E0A1
:101FA0000E94CB0AF8018A2D11928A95E9F7F12C4B
:101FB0000E94B204E82EFAE28F17A1F083E2E8163D
:101FC00089F041E06AE289E493E00E947809F8012F
:101FD000EF0DF11D80ED8E0D8083F3940E945B0365
:101FE000E816E1F3E6E0FE12E3CF68EC70E080E093
:101FF00090E00E94DC044801F12CE12CF401619195
:102000004F01C7010E942411FFEFEF1AFF0A86E07B
:10201000E816F10499F70E94D1098CEB91E00E9437
:10202000EE0868EE73E080E090E00E94DC041ACFD6
:102030000E94D1098BEC91E0F2CF86E090E00E9403
:10204000E00A823079F40E94D90981110BC00E9404
:10205000D10988EE91E00E94EE0860ED77E080E023
:1020600090E0D6C00E94D10986EF91E00E94EE0870
:1020700061E080E00E94CB0A83E092E00E94EE08DB
:102080000E94B20490ED980F9330D0F7803341F462
:1020900080E00E94FB080E94D10981E692E0DBCF3C
:1020A000813311F481E0F5CF82E0F3CFE8E0FE1652
:1020B000D9F00E94B204E82EFAE28F17B9F383E256
:1020C000E816A1F341E06AE289E493E00E9478090E
:1020D000F801EF0DF11D80ED8E0D8083F3940E94C9
:1020E0005B03E816E1F3E2CFFE013196ADE1B1E02A
:1020F00091918D91981371C0CE16DF06C9F70E9499
:10210000D1090E9400098BE592E06BC086E090E067
:102110000E94E00A813051F50E94E20A8823D9F03A
:102120000E94D1098EE192E00E94EE0860ED77E016
:1021300080E090E00E94DC040E94E20880E090E0F1
:10214000892B09F472CE0E945302882309F46DCEC4
:102150000E9400006ACE0E94D1098EE292E00E94A5
:10216000EE0860ED77E080E090E012C0811113C0CE
:102170000E94D909882379F30E94D1098EE192E067
:102180000E94EE080E94E2086CED75E080E090E0AD
:102190000E94DC04D3CF823089F60E94D9098823BB
:1021A000D1F20E94D1098DE392E00E94EE0860ED29
:1021B00077E080E090E00E94DC040E94E20A88233D
:1021C00039F00E94D10960E080E00E94CB0AD6CFAE
:1021D0000E94D1098CE492E0C2CF0E94D1098EE224
:1021E00092E00E94EE0860ED77E080E090E00E94CF
:1021F000DC0467CE0E94E20A81111FCF0E94D10940
:102200008BEC91E00E94EE0868EE73E080E090E0D5
:102210000E94DC043FCE0E94D1098AE692E00E942F
:10222000EE0861E084E00E94CB0AF8018B2D119248
:102230008A95E9F7F12C3DCFF999FECF92BD81BD8A
:10224000F89A992780B50895262FF999FECF1FBADD
:1022500092BD81BD20BD0FB6F894FA9AF99A0FBECF
:1022600001960895052E97FB1EF400940E944911D3
:1022700057FD07D00E94641107FC03D04EF40C9464
:10228000491150954095309521953F4F4F4F5F4FE5
:10229000089590958095709561957F4F8F4F9F4FD2
:1022A00008950E948611A59F900DB49F900DA49F44
:1022B000800D911D11240895B7FF0C9451110E94B7
:1022C0005111821B930B0895A1E21A2EAA1BBB1B6E
:1022D000FD010DC0AA1FBB1FEE1FFF1FA217B307F2
:1022E000E407F50720F0A21BB30BE40BF50B661F08
:1022F000771F881F991F1A9469F7609570958095CC
:1023000090959B01AC01BD01CF010895A29FB00142
:10231000B39FC001A39F700D811D1124911DB29F19
:10232000700D811D1124911D0895991B79E004C041
:10233000991F961708F0961B881F7A95C9F7809504
:102340000895EE0FFF1F0590F491E02D0994F89485
:02235000FFCFBD
:102352000607080001020431323334353637383982
:102362002A302301010101010157F0EC4E01010164
:10237200010101010100000000E60167028701334B
:1023820002B8019601AA0100000000DA0A6702DF22
:1023920008DE080000000057031703E602000000F1
:1023A200005807F5060E055461672052464944005D
:1023B200456E7465722050617373776F7264004466
:1023C2006F6F7220756E6C6F636B6564005B315D5D
:1023D2004D656E75205B235D4C6F636B00557064B9
:1023E2006174652050617373776F7264005B2A5D5C
:1023F2003C205B305D6F205B235D3E00456E746563
:1024020072204E6577205061737377005061737349
:10241200772055706461746564210057726F6E672E
:102422002050617373776F726421004368616E6735
:1024320065204C6576656C00496E76616C69642036
:1024420052464944210053656C656374204C65769D
:10245200656C004C6576656C3A20302F312F320066
:10246200466163746F7279205265736574004163CB
:1024720063657373204772616E7465642100416302
:10248200636573732044656E696564210052464931
:102492004420616363657074656421004163636510
:1024A20073732064656E6965642100526573657497
:1024B200205375636365737321004D617374657294
:0824C2002070617373773A008A
:00000001FF
